{
  "_format": "hh-sol-artifact-1",
  "contractName": "Blog",
  "sourceName": "contracts/Blog.sol",
  "abi": [
    {
      "inputs": [],
      "stateMutability": "nonpayable",
      "type": "constructor"
    },
    {
      "inputs": [],
      "name": "changeOwner",
      "outputs": [],
      "stateMutability": "payable",
      "type": "function"
    },
    {
      "inputs": [],
      "name": "changeOwnerPrice",
      "outputs": [
        {
          "internalType": "uint256",
          "name": "",
          "type": "uint256"
        }
      ],
      "stateMutability": "view",
      "type": "function"
    },
    {
      "inputs": [
        {
          "internalType": "string",
          "name": "_title",
          "type": "string"
        },
        {
          "internalType": "string",
          "name": "_content",
          "type": "string"
        }
      ],
      "name": "createPost",
      "outputs": [],
      "stateMutability": "payable",
      "type": "function"
    },
    {
      "inputs": [],
      "name": "getOwner",
      "outputs": [
        {
          "internalType": "address",
          "name": "",
          "type": "address"
        }
      ],
      "stateMutability": "view",
      "type": "function"
    },
    {
      "inputs": [],
      "name": "getPosts",
      "outputs": [
        {
          "components": [
            {
              "internalType": "string",
              "name": "title",
              "type": "string"
            },
            {
              "internalType": "string",
              "name": "content",
              "type": "string"
            },
            {
              "internalType": "uint256",
              "name": "timestamp",
              "type": "uint256"
            },
            {
              "internalType": "address",
              "name": "blogOwner",
              "type": "address"
            }
          ],
          "internalType": "struct Blog.Post[]",
          "name": "",
          "type": "tuple[]"
        }
      ],
      "stateMutability": "view",
      "type": "function"
    },
    {
      "inputs": [],
      "name": "getPostsByUser",
      "outputs": [
        {
          "components": [
            {
              "internalType": "string",
              "name": "title",
              "type": "string"
            },
            {
              "internalType": "string",
              "name": "content",
              "type": "string"
            },
            {
              "internalType": "uint256",
              "name": "timestamp",
              "type": "uint256"
            },
            {
              "internalType": "address",
              "name": "blogOwner",
              "type": "address"
            }
          ],
          "internalType": "struct Blog.Post[]",
          "name": "",
          "type": "tuple[]"
        }
      ],
      "stateMutability": "view",
      "type": "function"
    },
    {
      "inputs": [],
      "name": "owner",
      "outputs": [
        {
          "internalType": "address",
          "name": "",
          "type": "address"
        }
      ],
      "stateMutability": "view",
      "type": "function"
    }
  ],
  "bytecode": "0x608060405266038d7ea4c6800060015534801561001b57600080fd5b50336000806101000a81548173ffffffffffffffffffffffffffffffffffffffff021916908373ffffffffffffffffffffffffffffffffffffffff1602179055506112478061006b6000396000f3fe6080604052600436106100705760003560e01c8063893d20e81161004e578063893d20e8146100c65780638da5cb5b146100f15780639b893a471461011c578063b95f842a1461014757610070565b8063392338f51461007557806341f3004a1461009157806362a09477146100bc575b600080fd5b61008f600480360381019061008a9190610a8b565b610172565b005b34801561009d57600080fd5b506100a66102a4565b6040516100b39190610d08565b60405180910390f35b6100c4610487565b005b3480156100d257600080fd5b506100db61050d565b6040516100e89190610d39565b60405180910390f35b3480156100fd57600080fd5b50610106610536565b6040516101139190610d39565b60405180910390f35b34801561012857600080fd5b5061013161055a565b60405161013e9190610d63565b60405180910390f35b34801561015357600080fd5b5061015c610560565b6040516101699190610d08565b60405180910390f35b64174876e80034116101b9576040517f08c379a00000000000000000000000000000000000000000000000000000000081526004016101b090610e01565b60405180910390fd5b600060405180608001604052808481526020018381526020014281526020013373ffffffffffffffffffffffffffffffffffffffff16815250905060028190806001815401808255809150506001900390600052602060002090600402016000909190919091506000820151816000019081610235919061102d565b50602082015181600101908161024b919061102d565b506040820151816002015560608201518160030160006101000a81548173ffffffffffffffffffffffffffffffffffffffff021916908373ffffffffffffffffffffffffffffffffffffffff1602179055505050505050565b60606002805480602002602001604051908101604052809291908181526020016000905b8282101561047e57838290600052602060002090600402016040518060800160405290816000820180546102fb90610e50565b80601f016020809104026020016040519081016040528092919081815260200182805461032790610e50565b80156103745780601f1061034957610100808354040283529160200191610374565b820191906000526020600020905b81548152906001019060200180831161035757829003601f168201915b5050505050815260200160018201805461038d90610e50565b80601f01602080910402602001604051908101604052809291908181526020018280546103b990610e50565b80156104065780601f106103db57610100808354040283529160200191610406565b820191906000526020600020905b8154815290600101906020018083116103e957829003601f168201915b50505050508152602001600282015481526020016003820160009054906101000a900473ffffffffffffffffffffffffffffffffffffffff1673ffffffffffffffffffffffffffffffffffffffff1673ffffffffffffffffffffffffffffffffffffffff1681525050815260200190600101906102c8565b50505050905090565b60015434146104cb576040517f08c379a00000000000000000000000000000000000000000000000000000000081526004016104c29061114b565b60405180910390fd5b336000806101000a81548173ffffffffffffffffffffffffffffffffffffffff021916908373ffffffffffffffffffffffffffffffffffffffff160217905550565b60008060009054906101000a900473ffffffffffffffffffffffffffffffffffffffff16905090565b60008054906101000a900473ffffffffffffffffffffffffffffffffffffffff1681565b60015481565b6060600060028054905067ffffffffffffffff81111561058357610582610960565b5b6040519080825280602002602001820160405280156105bc57816020015b6105a96108f3565b8152602001906001900390816105a15790505b5090506000805b600280549050811015610839573373ffffffffffffffffffffffffffffffffffffffff16600282815481106105fb576105fa61116b565b5b906000526020600020906004020160030160009054906101000a900473ffffffffffffffffffffffffffffffffffffffff1673ffffffffffffffffffffffffffffffffffffffff1603610826576002818154811061065c5761065b61116b565b5b906000526020600020906004020160405180608001604052908160008201805461068590610e50565b80601f01602080910402602001604051908101604052809291908181526020018280546106b190610e50565b80156106fe5780601f106106d3576101008083540402835291602001916106fe565b820191906000526020600020905b8154815290600101906020018083116106e157829003601f168201915b5050505050815260200160018201805461071790610e50565b80601f016020809104026020016040519081016040528092919081815260200182805461074390610e50565b80156107905780601f1061076557610100808354040283529160200191610790565b820191906000526020600020905b81548152906001019060200180831161077357829003601f168201915b50505050508152602001600282015481526020016003820160009054906101000a900473ffffffffffffffffffffffffffffffffffffffff1673ffffffffffffffffffffffffffffffffffffffff1673ffffffffffffffffffffffffffffffffffffffff168152505083838151811061080c5761080b61116b565b5b60200260200101819052508180610822906111c9565b9250505b8080610831906111c9565b9150506105c3565b5060008167ffffffffffffffff81111561085657610855610960565b5b60405190808252806020026020018201604052801561088f57816020015b61087c6108f3565b8152602001906001900390816108745790505b50905060005b828110156108e9578381815181106108b0576108af61116b565b5b60200260200101518282815181106108cb576108ca61116b565b5b602002602001018190525080806108e1906111c9565b915050610895565b5080935050505090565b6040518060800160405280606081526020016060815260200160008152602001600073ffffffffffffffffffffffffffffffffffffffff1681525090565b6000604051905090565b600080fd5b600080fd5b600080fd5b600080fd5b6000601f19601f8301169050919050565b7f4e487b7100000000000000000000000000000000000000000000000000000000600052604160045260246000fd5b6109988261094f565b810181811067ffffffffffffffff821117156109b7576109b6610960565b5b80604052505050565b60006109ca610931565b90506109d6828261098f565b919050565b600067ffffffffffffffff8211156109f6576109f5610960565b5b6109ff8261094f565b9050602081019050919050565b82818337600083830152505050565b6000610a2e610a29846109db565b6109c0565b905082815260208101848484011115610a4a57610a4961094a565b5b610a55848285610a0c565b509392505050565b600082601f830112610a7257610a71610945565b5b8135610a82848260208601610a1b565b91505092915050565b60008060408385031215610aa257610aa161093b565b5b600083013567ffffffffffffffff811115610ac057610abf610940565b5b610acc85828601610a5d565b925050602083013567ffffffffffffffff811115610aed57610aec610940565b5b610af985828601610a5d565b9150509250929050565b600081519050919050565b600082825260208201905092915050565b6000819050602082019050919050565b600081519050919050565b600082825260208201905092915050565b60005b83811015610b69578082015181840152602081019050610b4e565b60008484015250505050565b6000610b8082610b2f565b610b8a8185610b3a565b9350610b9a818560208601610b4b565b610ba38161094f565b840191505092915050565b6000819050919050565b610bc181610bae565b82525050565b600073ffffffffffffffffffffffffffffffffffffffff82169050919050565b6000610bf282610bc7565b9050919050565b610c0281610be7565b82525050565b60006080830160008301518482036000860152610c258282610b75565b91505060208301518482036020860152610c3f8282610b75565b9150506040830151610c546040860182610bb8565b506060830151610c676060860182610bf9565b508091505092915050565b6000610c7e8383610c08565b905092915050565b6000602082019050919050565b6000610c9e82610b03565b610ca88185610b0e565b935083602082028501610cba85610b1f565b8060005b85811015610cf65784840389528151610cd78582610c72565b9450610ce283610c86565b925060208a01995050600181019050610cbe565b50829750879550505050505092915050565b60006020820190508181036000830152610d228184610c93565b905092915050565b610d3381610be7565b82525050565b6000602082019050610d4e6000830184610d2a565b92915050565b610d5d81610bae565b82525050565b6000602082019050610d786000830184610d54565b92915050565b600082825260208201905092915050565b7f596f75206e65656420746f20706179206174206c6561737420302e303030303060008201527f3031206574686572000000000000000000000000000000000000000000000000602082015250565b6000610deb602883610d7e565b9150610df682610d8f565b604082019050919050565b60006020820190508181036000830152610e1a81610dde565b9050919050565b7f4e487b7100000000000000000000000000000000000000000000000000000000600052602260045260246000fd5b60006002820490506001821680610e6857607f821691505b602082108103610e7b57610e7a610e21565b5b50919050565b60008190508160005260206000209050919050565b60006020601f8301049050919050565b600082821b905092915050565b600060088302610ee37fffffffffffffffffffffffffffffffffffffffffffffffffffffffffffffffff82610ea6565b610eed8683610ea6565b95508019841693508086168417925050509392505050565b6000819050919050565b6000610f2a610f25610f2084610bae565b610f05565b610bae565b9050919050565b6000819050919050565b610f4483610f0f565b610f58610f5082610f31565b848454610eb3565b825550505050565b600090565b610f6d610f60565b610f78818484610f3b565b505050565b5b81811015610f9c57610f91600082610f65565b600181019050610f7e565b5050565b601f821115610fe157610fb281610e81565b610fbb84610e96565b81016020851015610fca578190505b610fde610fd685610e96565b830182610f7d565b50505b505050565b600082821c905092915050565b600061100460001984600802610fe6565b1980831691505092915050565b600061101d8383610ff3565b9150826002028217905092915050565b61103682610b2f565b67ffffffffffffffff81111561104f5761104e610960565b5b6110598254610e50565b611064828285610fa0565b600060209050601f8311600181146110975760008415611085578287015190505b61108f8582611011565b8655506110f7565b601f1984166110a586610e81565b60005b828110156110cd578489015182556001820191506020850194506020810190506110a8565b868310156110ea57848901516110e6601f891682610ff3565b8355505b6001600288020188555050505b505050505050565b7f596f75206d757374207061792074686520707269636500000000000000000000600082015250565b6000611135601683610d7e565b9150611140826110ff565b602082019050919050565b6000602082019050818103600083015261116481611128565b9050919050565b7f4e487b7100000000000000000000000000000000000000000000000000000000600052603260045260246000fd5b7f4e487b7100000000000000000000000000000000000000000000000000000000600052601160045260246000fd5b60006111d482610bae565b91507fffffffffffffffffffffffffffffffffffffffffffffffffffffffffffffffff82036112065761120561119a565b5b60018201905091905056fea26469706673582212205cb24b9c424542f1b6ce5630f232a167eff4ece182fde43ab34566dc738752f364736f6c63430008110033",
  "linkReferences": {},
  "deployedLinkReferences": {}
}